:100000000C9434000C94E2020C9414030C945100F0
:100010000C9451000C9451000C9451000C9451001C
:100020000C9451000C9464010C9451000C945100F8
:100030000C9451000C9451000C9451000C945100FC
:100040000C94BA010C9451000C94DC010C945100F6
:100050000C9451000C9451000C9451000C945100DC
:100060000C9451000C94510011241FBECFEFD8E026
:10007000DEBFCDBF22E0ACE6B2E001C01D92AD38DC
:10008000B207E1F712E0A0E0B1E0EAE8FFE002C069
:1000900005900D92AC36B107D9F70E94F8030C9485
:1000A000C3070C9400005F98289A87BD85B58B7FA5
:1000B00085BD85B5826085BD85B58E7F85BD82E0B5
:1000C0000895CF93C82F409A8A3019F48DE00E948A
:1000D00061008091C00085FFFCCFC093C6004098AE
:1000E000CF9108955C9AE1EBF0E080818B7F808373
:1000F00080818D7F808380818E7F808380E00895E2
:100100005F9A85B58B7F85BD85B58D7F85BD85B5AE
:100110008E7F85BD80E008955F9885B58B7F85BD16
:1001200085B58D7F85BD85B58E7F85BD81E00895C0
:1001300081E0809371025C98299A8EE18093B300EC
:10014000E1EBF0E080818B7F80838081826080831F
:1001500080818E7F808381E091E00C94CB0481E0EC
:100160008093700210926D0284EB0E945300809382
:10017000740282E191E00C94CB04CF92DF92EF9273
:10018000FF926B017C019B01AC01275D3F4F4F4FFC
:100190005F4FA0E4B1E00E94940460937E027093EC
:1001A0007F028093800290938102109282021092CB
:1001B0008302109284021092850221E0209386022D
:1001C0009F938F937F936F93FF92EF92DF92CF92E3
:1001D0008CE191E09F938F930E94AE045C982998E4
:1001E0008EE18093B300E1EBF0E080818B7F808330
:1001F00080818260808380818E7F80838DB79EB76F
:100200000A960FB6F8949EBF0FBE8DBFFF90EF9079
:10021000DF90CF900895CF9380936C021092730279
:1002200010927202282F082E000C330B3F938F93ED
:1002300080916D02282F082E000C330B3F938F9373
:1002400085E391E09F938F930E94AE040F900F90EF
:100250000F900F900F900F9080916E02813019F4E3
:10026000CF910C94AF00C0916C02809100018C176B
:100270001CF484E491E01EC080916D02C8131DC07F
:100280000E948C00809374028C2F0C2E000C990B12
:100290009F93CF939F93CF938FE591E09F938F93FD
:1002A0000E94AE040F900F900F900F900F900F9040
:1002B00086E791E0CF910C94CB0485EA0E9453002D
:1002C00080937402CF9108951F920F920FB60F92F0
:1002D00011242F933F934F935F936F937F938F934B
:1002E0009F93AF93BF93EF93FF93809186028130EA
:1002F00081F58091820290918302A0918402B09155
:1003000085020196A11DB11D809382029093830204
:10031000A0938402B093850240917E0250917F02A7
:10032000609180027091810284179507A607B70734
:1003300081F40E9472001092860289E891E00E9486
:10034000CB0480917D02811102C00E94980010921E
:100350007D02FF91EF91BF91AF919F918F917F911E
:100360006F915F914F913F912F910F900FBE0F9022
:100370001F9018951F920F920FB60F9211242F9372
:100380008F939F9380917C02813071F480917A02E7
:1003900090917B02019690937B0280937A028C3B32
:1003A000924011F410927C029F918F912F910F90A7
:1003B0000FBE0F901F9018951F920F920FB60F92BD
:1003C0001124CF92DF92EF92FF920F931F932F93FE
:1003D0003F934F935F936F937F938F939F93AF93CD
:1003E000BF93EF93FF93CF93DF931F92CDB7DEB709
:1003F000409A8091C60089838981843531F0982F95
:100400009B7F993411F0813521F48093760281E04D
:100410005CC0883419F40E94AF00B7C0853439F449
:100420000E948C008093740289E991E038C0843482
:1004300039F40E9480008093740281EA91E02FC019
:100440008F3469F41092730281E08093720285EA1E
:100450000E945300809374028AEA91E020C08235A2
:1004600019F40E94980091C08E3499F45C988091A0
:10047000B1008B7F8093B1008091B1008D7F80931C
:10048000B1008091B1008E7F8093B10086EB91E046
:1004900006C0833539F40E94720088EC91E00E9416
:1004A000CB0473C090917502191694F49091750263
:1004B000943074F4E09175020E2E000CFF0BEA5894
:1004C000FD4F8083809175028F5F809375025FC0BE
:1004D00080917502843009F05AC0409177022091D2
:1004E000780280917902042E000C550B405351097B
:1004F00094E6949F8001959F100D1124022E000C0C
:10050000330B205331099AE0929FA001939F500D25
:100510001124040F151F082E000C990BC097080F0B
:10052000191F6801012E000CEE08FF088091760269
:100530008D3419F4802F0E940B018091760284354E
:1005400089F48FEF800F8093000111271F930F9381
:100550008BED91E09F938F930E94AE040F900F90CC
:100560000F900F9080917602893421F4C701B60173
:100570000E94BD0080917602813539F481E080933C
:100580007D02C701B6010E94BD001092750240981D
:100590000F90DF91CF91FF91EF91BF91AF919F911C
:1005A0008F917F916F915F914F913F912F911F910B
:1005B0000F91FF90EF90DF90CF900F900FBE0F90B4
:1005C0001F9018951F920F920FB60F9211242F9320
:1005D0003F934F935F936F937F938F939F93AF93CB
:1005E000BF93EF93FF9380917102813061F40E9479
:1005F00072000E94800080937402109271028BEE50
:1006000091E00E94CB04FF91EF91BF91AF919F9138
:100610008F917F916F915F914F913F912F910F90AB
:100620000FBE0F901F9018951F920F920FB60F924A
:1006300011242F933F934F935F936F937F938F93E7
:100640009F93AF93BF93CF93EF93FF9380917402E7
:10065000823009F0B0C0C09170024B9B48C0C130DD
:1006600099F580916F02813079F510926F02809137
:100670007C02811121C01092700210927C020E94B3
:1006800080008093740281E092E00E94CB0480910C
:100690006E02813009F09AC010926E0280916C0255
:1006A00090916D02981719F00E940B018FC00E9463
:1006B0008C008093740218C084EB0E9453008093D6
:1006C00074028DE092E080C080917302813009F065
:1006D0007DC00E948C0080937402809172028130F0
:1006E00019F486E192E070C086E791E06DC0C130F8
:1006F00071F4C0936F028AEF0E94530080937402DA
:1007000010927B0210927A02C0937C025FC0C0916B
:100710007202C13051F48AEF0E9453008093740238
:10072000C093730281E292E04FC080916D0290917C
:100730000001891303C010926D0203C08F5F809384
:100740006D02292F092E000C330B3F939F9380914C
:100750006C02282F082E000C330B3F938F9380914F
:100760006D02282F082E000C330B3F938F938DE2E0
:1007700092E09F938F930E94AE048DB79EB7089628
:100780000FB6F8949EBF0FBE8DBF90916D02809101
:100790006C0298130BC08AEF0E945300809374027E
:1007A00081E0809373028EE392E00EC08AE090E0D5
:1007B0000E94C4040BC0811109C04B9907C081E09D
:1007C00080936E0285E492E00E94CB04FF91EF914A
:1007D000CF91BF91AF919F918F917F916F915F91D9
:1007E0004F913F912F910F900FBE0F901F90189532
:1007F000CF93DF93CDB7DEB72E970FB6F894DEBF59
:100800000FBECDBF539852985A9A549A569A579AF7
:10081000209A219A239A389A5F9A5C9A84B58F77A6
:1008200084BD84B5806484BD8091B0008F7780934F
:10083000B0008091B00080648093B00085B588607E
:1008400085BD84B58D7F84BD84B5816084BD809174
:10085000B10088608093B1008091B0008D7F80935B
:10086000B0008091B00081608093B00080916E00F4
:10087000816080936E008091700081608093700031
:1008800080916900877F809369008091690084600E
:1008900080936900809169008D7F809369008091C9
:1008A0006900816080936900E99AE89A1092C50016
:1008B00087E68093C4008091C0008D7F8093C00044
:1008C0008091C10080618093C1008091C1008860E7
:1008D0008093C1008091C10080688093C1008091A5
:1008E000C1008B7F8093C1008091C200846080939F
:1008F000C2008091C20082608093C200FE013196E6
:100900008EE0DF011D928A95E9F782E08C8381E613
:1009100090E09A878987F0938A02E093890288E4BD
:100920008093B8007894FFCF0E949F04A59F900DFC
:10093000B49F900DA49F800D911D11240895A29F36
:10094000B001B39FC001A39F700D811D1124911DA3
:10095000B29F700D811D1124911D0895A0E0B0E09B
:10096000E4EBF4E00C949C07AE014B5F5F4FFA019F
:1009700061917191AF018091890290918A020E94E8
:10098000FB04E2E00C94B8076091890270918A023E
:100990000E94F20608950F931F93CF93DF93E09187
:1009A0008902F0918A02238121FF1BC08C01D0E0D3
:1009B000C0E0F80181918F016091890270918A02F3
:1009C000DB011896ED91FC911997882331F0099578
:1009D000892B79F3DFEFCFEFECCF8AE00995892BF4
:1009E00019F08FEF9FEF02C08D2F9C2FDF91CF91D9
:1009F0001F910F910895ABE0B0E0E1E0F5E00C94B9
:100A00008C076C017B018A01FC01178216828381AD
:100A100081FFCCC1CE0101963C01F6019381F70123
:100A200093FD859193FF81917F01882309F4BAC1D9
:100A3000853239F493FD859193FF81917F01853251
:100A400029F4B60190E00E94F206E7CF912C212C08
:100A5000312CFFE1F315D8F08B3279F038F4803285
:100A600079F08332A1F4232D20611DC08D3261F015
:100A7000803369F4232D216016C0832D8260382EC7
:100A8000E32DE4603E2E2AC0F32DF8601DC037FC34
:100A90002DC020ED280F2A3040F08E32B9F436FCFC
:100AA00081C1232D2064322E19C036FE06C08AE093
:100AB000989E200D1124922E11C0EAE02E9E200D4A
:100AC0001124222EF32DF0623F2E08C08C3621F423
:100AD000832D8068382E02C0883641F4F70193FDDB
:100AE000859193FF81917F018111B3CF982F9F7DD5
:100AF0009554933028F40C5F1F4F9FE399830DC0EA
:100B0000833631F0833771F0833509F059C021C045
:100B1000F801808189830E5F1F4F88248394912C74
:100B2000530113C02801F2E04F0E511CF801A080C0
:100B3000B18036FE03C0692D70E002C06FEF7FEF19
:100B4000C5010E94E7064C018201F32DFF773F2E7D
:100B500016C0280122E0420E511CF801A080B1808D
:100B600036FE03C0692D70E002C06FEF7FEFC50154
:100B70000E94DC064C01F32DF0683F2E820133FC0D
:100B80001BC0822D90E088169906B0F4B60180E271
:100B900090E00E94F2062A94F4CFF50137FC85918B
:100BA00037FE81915F01B60190E00E94F2062110AC
:100BB0002A9421E0821A91088114910471F7E8C007
:100BC000843611F0893641F5F80137FE07C060819F
:100BD0007181828193810C5F1F4F08C06081718198
:100BE000072E000C880B990B0E5F1F4FF32DFF761D
:100BF0003F2E97FF09C090958095709561957F4F26
:100C00008F4F9F4FF0683F2E2AE030E0A3010E94F3
:100C10002E07882E861845C0853731F4232D2F7E68
:100C2000B22E2AE030E025C0932D997FB92E8F3661
:100C3000C1F018F4883579F0B5C0803719F08837DD
:100C400021F0B0C0E92FE061BE2EB4FE0DC0FB2D37
:100C5000F460BF2E09C034FE0AC0292F2660B22ED0
:100C600006C028E030E005C020E130E002C020E10D
:100C700032E0F801B7FE07C0608171818281938103
:100C80000C5F1F4F06C06081718180E090E00E5FB5
:100C90001F4FA3010E942E07882E8618FB2DFF7779
:100CA0003F2E36FE0DC0232D2E7FA22E891458F420
:100CB00034FE0BC032FC09C0832D8E7EA82E05C0E9
:100CC000B82CA32C03C0B82C01C0B92CA4FE0FC0B3
:100CD000FE01E80DF11D8081803321F49A2D997E6B
:100CE000A92E09C0A2FE06C0B394B39404C08A2DF5
:100CF000867809F0B394A3FC11C0A0FE06C0B2141C
:100D000088F4280C922C9B180EC0B21460F4B60123
:100D100080E290E00E94F206B394F7CFB21418F488
:100D20002B1802C0982C212CA4FE10C0B60180E321
:100D300090E00E94F206A2FE17C0A1FC03C088E763
:100D400090E002C088E590E0B6010CC08A2D86785C
:100D500059F0A1FE02C08BE201C080E2A7FC8DE247
:100D6000B60190E00E94F206891438F4B60180E3DF
:100D700090E00E94F2069A94F7CF8A94F301E80D6E
:100D8000F11D8081B60190E00E94F2068110F5CF3E
:100D9000222009F442CEB60180E290E00E94F206E1
:100DA0002A94F6CFF6018681978102C08FEF9FEFDC
:100DB0002B96E2E10C94A807FC010590615070406D
:100DC0000110D8F7809590958E0F9F1F0895FC0114
:100DD0006150704001900110D8F7809590958E0F6A
:100DE0009F1F08950F931F93CF93DF93FB012381E0
:100DF00021FD03C08FEF9FEF2CC022FF16C046815C
:100E00005781248135814217530744F4A081B18171
:100E10009D012F5F3F4F318320838C932681378143
:100E20002F5F3F4F3783268314C08B01EC01FB01FA
:100E30000084F185E02D0995892BE1F6D8011696FD
:100E40008D919C911797019617969C938E93169768
:100E5000CE01DF91CF911F910F910895FA01AA273A
:100E6000283051F1203181F1E8946F936E7F6E5FED
:100E70007F4F8F4F9F4FAF4FB1E03ED0B4E03CD09B
:100E8000670F781F891F9A1FA11D680F791F8A1F7E
:100E9000911DA11D6A0F711D811D911DA11D20D0E5
:100EA00009F468943F912AE0269F11243019305D9F
:100EB0003193DEF6CF010895462F4770405D419390
:100EC000B3E00FD0C9F7F6CF462F4F70405D4A33DD
:100ED00018F0495D31FD4052419302D0A9F7EACFA5
:100EE000B4E0A6959795879577956795BA95C9F7D4
:100EF00000976105710508959B01AC010A2E0694C7
:100F00005795479537952795BA95C9F7620F731F7F
:100F1000841F951FA01D08952F923F924F925F92BC
:100F20006F927F928F929F92AF92BF92CF92DF92F9
:100F3000EF92FF920F931F93CF93DF93CDB7DEB75E
:100F4000CA1BDB0B0FB6F894DEBF0FBECDBF0994F2
:100F50002A88398848885F846E847D848C849B8449
:100F6000AA84B984C884DF80EE80FD800C811B8157
:100F7000AA81B981CE0FD11D0FB6F894DEBF0FBE86
:0A0F8000CDBFED010895F894FFCFF6
:100F8A000464697370656E73657220686F6D696E4B
:100F9A006700686F6D696E672E2E2E006469737024
:100FAA00656E736520256C756D6D20256C7573747F
:100FBA006570730A00737461727420692564206411
:100FCA0025640A006572726F723A20696E646578E8
:100FDA00206F7574206F6620626F756E647300618E
:100FEA006C7265616479207468657265206925642C
:100FFA00206425640A00646F6E65206D6F76696EE1
:10100A006720746F20706F7300646F6E6520646967
:10101A007370656E73696E6700656E61626C656494
:10102A000064697361626C65640073746172742030
:10103A00286F6E652900656E61626C65642064695B
:10104A007370656E7365720064697361626C65645E
:10105A002064697370656E73657200746F74616C75
:10106A00206974656D732025640A00646F6E6520BB
:10107A00686F6D696E672064697370656E736572F7
:10108A0000646F6E6520686F6D696E67006E6F74BD
:10109A0020686F6D6500646F6E6520286F6E652924
:1010AA0000666F756E6420286F6E652900696E632D
:1010BA002069256420642564206D69256400206602
:1010CA006F756E64007761726E696E673A20495275
:1010DA0020646574656374696F6E207768696C65EE
:0C10EA00206E6F74206D6F76696E6700D9
:00000001FF
